{
    "contractName": "SmartIntelligenceLicense",
    "abi": [
        {
            "inputs": [
                {
                    "internalType": "string",
                    "name": "baseURI",
                    "type": "string"
                },
                {
                    "internalType": "uint256",
                    "name": "price",
                    "type": "uint256"
                },
                {
                    "internalType": "address",
                    "name": "paymentToken",
                    "type": "address"
                }
            ],
            "stateMutability": "nonpayable",
            "type": "constructor"
        },
        {
            "anonymous": false,
            "inputs": [
                {
                    "indexed": true,
                    "internalType": "address",
                    "name": "owner",
                    "type": "address"
                },
                {
                    "indexed": true,
                    "internalType": "address",
                    "name": "approved",
                    "type": "address"
                },
                {
                    "indexed": true,
                    "internalType": "uint256",
                    "name": "tokenId",
                    "type": "uint256"
                }
            ],
            "name": "Approval",
            "type": "event"
        },
        {
            "anonymous": false,
            "inputs": [
                {
                    "indexed": true,
                    "internalType": "address",
                    "name": "owner",
                    "type": "address"
                },
                {
                    "indexed": true,
                    "internalType": "address",
                    "name": "operator",
                    "type": "address"
                },
                {
                    "indexed": false,
                    "internalType": "bool",
                    "name": "approved",
                    "type": "bool"
                }
            ],
            "name": "ApprovalForAll",
            "type": "event"
        },
        {
            "anonymous": false,
            "inputs": [
                {
                    "indexed": true,
                    "internalType": "address",
                    "name": "previousOwner",
                    "type": "address"
                },
                {
                    "indexed": true,
                    "internalType": "address",
                    "name": "newOwner",
                    "type": "address"
                }
            ],
            "name": "OwnershipTransferred",
            "type": "event"
        },
        {
            "anonymous": false,
            "inputs": [
                {
                    "indexed": true,
                    "internalType": "address",
                    "name": "from",
                    "type": "address"
                },
                {
                    "indexed": true,
                    "internalType": "address",
                    "name": "to",
                    "type": "address"
                },
                {
                    "indexed": true,
                    "internalType": "uint256",
                    "name": "tokenId",
                    "type": "uint256"
                }
            ],
            "name": "Transfer",
            "type": "event"
        },
        {
            "anonymous": false,
            "inputs": [
                {
                    "indexed": false,
                    "internalType": "string",
                    "name": "oldBaseURI",
                    "type": "string"
                },
                {
                    "indexed": false,
                    "internalType": "string",
                    "name": "newBaseURI",
                    "type": "string"
                }
            ],
            "name": "UpdateBaseURI",
            "type": "event"
        },
        {
            "anonymous": false,
            "inputs": [
                {
                    "indexed": false,
                    "internalType": "uint256",
                    "name": "oldMintPrice",
                    "type": "uint256"
                },
                {
                    "indexed": false,
                    "internalType": "uint256",
                    "name": "newMintPrice",
                    "type": "uint256"
                }
            ],
            "name": "UpdateMintPrice",
            "type": "event"
        },
        {
            "anonymous": false,
            "inputs": [
                {
                    "indexed": false,
                    "internalType": "bool",
                    "name": "enableTransfer",
                    "type": "bool"
                }
            ],
            "name": "UpdatedEnableTransfer",
            "type": "event"
        },
        {
            "inputs": [
                {
                    "internalType": "uint256",
                    "name": "",
                    "type": "uint256"
                }
            ],
            "name": "SILDetails",
            "outputs": [
                {
                    "internalType": "bool",
                    "name": "enableSale",
                    "type": "bool"
                },
                {
                    "internalType": "bool",
                    "name": "enableInvestment",
                    "type": "bool"
                }
            ],
            "stateMutability": "view",
            "type": "function"
        },
        {
            "inputs": [
                {
                    "internalType": "uint256",
                    "name": "_cost",
                    "type": "uint256"
                },
                {
                    "components": [
                        {
                            "internalType": "bool",
                            "name": "enableSale",
                            "type": "bool"
                        },
                        {
                            "internalType": "bool",
                            "name": "enableInvestment",
                            "type": "bool"
                        }
                    ],
                    "internalType": "struct SmartIntelligenceLicense.SILDetail",
                    "name": "_SILDetail",
                    "type": "tuple"
                }
            ],
            "name": "adopt",
            "outputs": [],
            "stateMutability": "nonpayable",
            "type": "function"
        },
        {
            "inputs": [
                {
                    "internalType": "address",
                    "name": "to",
                    "type": "address"
                },
                {
                    "internalType": "uint256",
                    "name": "tokenId",
                    "type": "uint256"
                }
            ],
            "name": "approve",
            "outputs": [],
            "stateMutability": "nonpayable",
            "type": "function"
        },
        {
            "inputs": [
                {
                    "internalType": "address",
                    "name": "owner",
                    "type": "address"
                }
            ],
            "name": "balanceOf",
            "outputs": [
                {
                    "internalType": "uint256",
                    "name": "",
                    "type": "uint256"
                }
            ],
            "stateMutability": "view",
            "type": "function"
        },
        {
            "inputs": [
                {
                    "internalType": "uint256",
                    "name": "tokenId",
                    "type": "uint256"
                }
            ],
            "name": "burn",
            "outputs": [],
            "stateMutability": "nonpayable",
            "type": "function"
        },
        {
            "inputs": [],
            "name": "enableTransfer",
            "outputs": [
                {
                    "internalType": "bool",
                    "name": "",
                    "type": "bool"
                }
            ],
            "stateMutability": "view",
            "type": "function"
        },
        {
            "inputs": [
                {
                    "internalType": "uint256",
                    "name": "tokenId",
                    "type": "uint256"
                }
            ],
            "name": "getApproved",
            "outputs": [
                {
                    "internalType": "address",
                    "name": "",
                    "type": "address"
                }
            ],
            "stateMutability": "view",
            "type": "function"
        },
        {
            "inputs": [],
            "name": "getMintPrice",
            "outputs": [
                {
                    "internalType": "uint256",
                    "name": "",
                    "type": "uint256"
                }
            ],
            "stateMutability": "view",
            "type": "function"
        },
        {
            "inputs": [],
            "name": "getPause",
            "outputs": [
                {
                    "internalType": "bool",
                    "name": "",
                    "type": "bool"
                }
            ],
            "stateMutability": "view",
            "type": "function"
        },
        {
            "inputs": [],
            "name": "getPaymentToken",
            "outputs": [
                {
                    "internalType": "contract IERC20",
                    "name": "",
                    "type": "address"
                }
            ],
            "stateMutability": "view",
            "type": "function"
        },
        {
            "inputs": [
                {
                    "internalType": "address",
                    "name": "owner",
                    "type": "address"
                },
                {
                    "internalType": "address",
                    "name": "operator",
                    "type": "address"
                }
            ],
            "name": "isApprovedForAll",
            "outputs": [
                {
                    "internalType": "bool",
                    "name": "",
                    "type": "bool"
                }
            ],
            "stateMutability": "view",
            "type": "function"
        },
        {
            "inputs": [],
            "name": "name",
            "outputs": [
                {
                    "internalType": "string",
                    "name": "",
                    "type": "string"
                }
            ],
            "stateMutability": "view",
            "type": "function"
        },
        {
            "inputs": [],
            "name": "owner",
            "outputs": [
                {
                    "internalType": "address",
                    "name": "",
                    "type": "address"
                }
            ],
            "stateMutability": "view",
            "type": "function"
        },
        {
            "inputs": [
                {
                    "internalType": "uint256",
                    "name": "tokenId",
                    "type": "uint256"
                }
            ],
            "name": "ownerOf",
            "outputs": [
                {
                    "internalType": "address",
                    "name": "",
                    "type": "address"
                }
            ],
            "stateMutability": "view",
            "type": "function"
        },
        {
            "inputs": [
                {
                    "internalType": "bool",
                    "name": "val",
                    "type": "bool"
                }
            ],
            "name": "pause",
            "outputs": [],
            "stateMutability": "nonpayable",
            "type": "function"
        },
        {
            "inputs": [],
            "name": "renounceOwnership",
            "outputs": [],
            "stateMutability": "nonpayable",
            "type": "function"
        },
        {
            "inputs": [
                {
                    "internalType": "address",
                    "name": "from",
                    "type": "address"
                },
                {
                    "internalType": "address",
                    "name": "to",
                    "type": "address"
                },
                {
                    "internalType": "uint256",
                    "name": "tokenId",
                    "type": "uint256"
                }
            ],
            "name": "safeTransferFrom",
            "outputs": [],
            "stateMutability": "nonpayable",
            "type": "function"
        },
        {
            "inputs": [
                {
                    "internalType": "address",
                    "name": "from",
                    "type": "address"
                },
                {
                    "internalType": "address",
                    "name": "to",
                    "type": "address"
                },
                {
                    "internalType": "uint256",
                    "name": "tokenId",
                    "type": "uint256"
                },
                {
                    "internalType": "bytes",
                    "name": "_data",
                    "type": "bytes"
                }
            ],
            "name": "safeTransferFrom",
            "outputs": [],
            "stateMutability": "nonpayable",
            "type": "function"
        },
        {
            "inputs": [
                {
                    "internalType": "address",
                    "name": "operator",
                    "type": "address"
                },
                {
                    "internalType": "bool",
                    "name": "approved",
                    "type": "bool"
                }
            ],
            "name": "setApprovalForAll",
            "outputs": [],
            "stateMutability": "nonpayable",
            "type": "function"
        },
        {
            "inputs": [
                {
                    "internalType": "string",
                    "name": "baseURI",
                    "type": "string"
                }
            ],
            "name": "setBaseURI",
            "outputs": [],
            "stateMutability": "nonpayable",
            "type": "function"
        },
        {
            "inputs": [
                {
                    "internalType": "bool",
                    "name": "_enableTransfer",
                    "type": "bool"
                }
            ],
            "name": "setEnableTransfer",
            "outputs": [],
            "stateMutability": "nonpayable",
            "type": "function"
        },
        {
            "inputs": [
                {
                    "internalType": "uint256",
                    "name": "_newPrice",
                    "type": "uint256"
                }
            ],
            "name": "setMintPrice",
            "outputs": [],
            "stateMutability": "nonpayable",
            "type": "function"
        },
        {
            "inputs": [
                {
                    "internalType": "address",
                    "name": "_newPaymentToken",
                    "type": "address"
                }
            ],
            "name": "setPaymentToken",
            "outputs": [],
            "stateMutability": "nonpayable",
            "type": "function"
        },
        {
            "inputs": [
                {
                    "components": [
                        {
                            "internalType": "bool",
                            "name": "enableSale",
                            "type": "bool"
                        },
                        {
                            "internalType": "bool",
                            "name": "enableInvestment",
                            "type": "bool"
                        }
                    ],
                    "internalType": "struct SmartIntelligenceLicense.SILDetail",
                    "name": "_SILDetail",
                    "type": "tuple"
                },
                {
                    "internalType": "uint256",
                    "name": "_tokenId",
                    "type": "uint256"
                }
            ],
            "name": "setSILDetail",
            "outputs": [],
            "stateMutability": "nonpayable",
            "type": "function"
        },
        {
            "inputs": [
                {
                    "internalType": "bytes4",
                    "name": "interfaceId",
                    "type": "bytes4"
                }
            ],
            "name": "supportsInterface",
            "outputs": [
                {
                    "internalType": "bool",
                    "name": "",
                    "type": "bool"
                }
            ],
            "stateMutability": "view",
            "type": "function"
        },
        {
            "inputs": [],
            "name": "symbol",
            "outputs": [
                {
                    "internalType": "string",
                    "name": "",
                    "type": "string"
                }
            ],
            "stateMutability": "view",
            "type": "function"
        },
        {
            "inputs": [
                {
                    "internalType": "uint256",
                    "name": "index",
                    "type": "uint256"
                }
            ],
            "name": "tokenByIndex",
            "outputs": [
                {
                    "internalType": "uint256",
                    "name": "",
                    "type": "uint256"
                }
            ],
            "stateMutability": "view",
            "type": "function"
        },
        {
            "inputs": [
                {
                    "internalType": "address",
                    "name": "owner",
                    "type": "address"
                },
                {
                    "internalType": "uint256",
                    "name": "index",
                    "type": "uint256"
                }
            ],
            "name": "tokenOfOwnerByIndex",
            "outputs": [
                {
                    "internalType": "uint256",
                    "name": "",
                    "type": "uint256"
                }
            ],
            "stateMutability": "view",
            "type": "function"
        },
        {
            "inputs": [
                {
                    "internalType": "uint256",
                    "name": "tokenId",
                    "type": "uint256"
                }
            ],
            "name": "tokenURI",
            "outputs": [
                {
                    "internalType": "string",
                    "name": "",
                    "type": "string"
                }
            ],
            "stateMutability": "view",
            "type": "function"
        },
        {
            "inputs": [],
            "name": "totalSupply",
            "outputs": [
                {
                    "internalType": "uint256",
                    "name": "",
                    "type": "uint256"
                }
            ],
            "stateMutability": "view",
            "type": "function"
        },
        {
            "inputs": [
                {
                    "internalType": "address",
                    "name": "from",
                    "type": "address"
                },
                {
                    "internalType": "address",
                    "name": "to",
                    "type": "address"
                },
                {
                    "internalType": "uint256",
                    "name": "tokenId",
                    "type": "uint256"
                }
            ],
            "name": "transferFrom",
            "outputs": [],
            "stateMutability": "nonpayable",
            "type": "function"
        },
        {
            "inputs": [
                {
                    "internalType": "address",
                    "name": "newOwner",
                    "type": "address"
                }
            ],
            "name": "transferOwnership",
            "outputs": [],
            "stateMutability": "nonpayable",
            "type": "function"
        },
        {
            "inputs": [
                {
                    "internalType": "address",
                    "name": "_owner",
                    "type": "address"
                }
            ],
            "name": "walletOfOwner",
            "outputs": [
                {
                    "internalType": "uint256[]",
                    "name": "",
                    "type": "uint256[]"
                }
            ],
            "stateMutability": "view",
            "type": "function"
        },
        {
            "inputs": [
                {
                    "internalType": "uint256",
                    "name": "_amount",
                    "type": "uint256"
                },
                {
                    "internalType": "contract IERC20",
                    "name": "_token",
                    "type": "address"
                }
            ],
            "name": "withdraw",
            "outputs": [],
            "stateMutability": "nonpayable",
            "type": "function"
        }
    ],
    "bytecode": "60806040526000805460ff60a01b19908116909155600d8054909116600160a01b1790553480156200003057600080fd5b5060405162002bd838038062002bd8833981016040819052620000539162000214565b6040518060400160405280601e81526020017f536d61727420496e74656c6c6967656e6365204c6963656e7365204e465400008152506040518060400160405280600381526020016214d25360ea1b815250620000bf620000b96200011c60201b60201c565b62000120565b6001620000cd838262000394565b506002620000dc828262000394565b505050620000f0836200017060201b60201c565b600c91909155600d80546001600160a01b0319166001600160a01b039092169190911790555062000460565b3390565b600080546001600160a01b038381166001600160a01b0319831681178455604051919092169283917f8be0079c531659141344cd1fd0a4f28419497f9722a3daafe3b4186f6b6457e09190a35050565b6000546001600160a01b03163314620001cf5760405162461bcd60e51b815260206004820181905260248201527f4f776e61626c653a2063616c6c6572206973206e6f7420746865206f776e6572604482015260640160405180910390fd5b600b620001dd828262000394565b5050565b634e487b7160e01b600052604160045260246000fd5b80516001600160a01b03811681146200020f57600080fd5b919050565b6000806000606084860312156200022a57600080fd5b83516001600160401b03808211156200024257600080fd5b818601915086601f8301126200025757600080fd5b8151818111156200026c576200026c620001e1565b604051601f8201601f19908116603f01168101908382118183101715620002975762000297620001e1565b81604052828152602093508984848701011115620002b457600080fd5b600091505b82821015620002d85784820184015181830185015290830190620002b9565b60008484830101528097505050508086015193505050620002fc60408501620001f7565b90509250925092565b600181811c908216806200031a57607f821691505b6020821081036200033b57634e487b7160e01b600052602260045260246000fd5b50919050565b601f8211156200038f57600081815260208120601f850160051c810160208610156200036a5750805b601f850160051c820191505b818110156200038b5782815560010162000376565b5050505b505050565b81516001600160401b03811115620003b057620003b0620001e1565b620003c881620003c1845462000305565b8462000341565b602080601f831160018114620004005760008415620003e75750858301515b600019600386901b1c1916600185901b1785556200038b565b600085815260208120601f198616915b82811015620004315788860151825594840194600190910190840162000410565b5085821015620004505787850151600019600388901b60f8161c191681555b5050505050600190811b01905550565b61276880620004706000396000f3fe608060405234801561001057600080fd5b50600436106102055760003560e01c80636a326ab11161011a578063a56b357c116100ad578063d41c3a651161007c578063d41c3a651461047a578063e985e9c51461048b578063f1b50c1d146104c7578063f2fde38b146104db578063f4a0a528146104ee57600080fd5b8063a56b357c14610409578063a7f93ebd1461044c578063b88d4fde14610454578063c87b56dd1461046757600080fd5b80637e75da88116100e95780637e75da88146103ca5780638da5cb5b146103dd57806395d89b41146103ee578063a22cb465146103f657600080fd5b80636a326ab1146103895780636fcc25851461039c57806370a08231146103af578063715018a6146103c257600080fd5b806323b872dd1161019d57806342966c681161016c57806342966c681461031d578063438b6300146103305780634f6ccce71461035057806355f804b3146103635780636352211e1461037657600080fd5b806323b872dd146102d25780632f745c59146102e55780633e3ca9d3146102f857806342842e0e1461030a57600080fd5b806307f01061116101d957806307f010611461026f578063081812fc14610282578063095ea7b3146102ad57806318160ddd146102c057600080fd5b8062f714ce1461020a57806301ffc9a71461021f57806302329a291461024757806306fdde031461025a575b600080fd5b61021d610218366004611f5b565b610501565b005b61023261022d366004611fa1565b610667565b60405190151581526020015b60405180910390f35b61021d610255366004611fcc565b610692565b61026261073c565b60405161023e9190612039565b61021d61027d366004612064565b6107ce565b610295610290366004612091565b61097f565b6040516001600160a01b03909116815260200161023e565b61021d6102bb3660046120aa565b610a14565b6009545b60405190815260200161023e565b61021d6102e03660046120d6565b610b24565b6102c46102f33660046120aa565b610b56565b600d54600160a01b900460ff16610232565b61021d6103183660046120d6565b610bec565b61021d61032b366004612091565b610c07565b61034361033e366004612117565b610c7e565b60405161023e9190612134565b6102c461035e366004612091565b610d20565b61021d610371366004612204565b610db3565b610295610384366004612091565b610ded565b61021d610397366004612117565b610e64565b61021d6103aa366004611fcc565b610eb0565b6102c46103bd366004612117565b610f32565b61021d610fb9565b61021d6103d836600461224d565b610fef565b6000546001600160a01b0316610295565b61026261111b565b61021d610404366004612278565b61112a565b610435610417366004612091565b600e6020526000908152604090205460ff8082169161010090041682565b60408051921515835290151560208301520161023e565b600c546102c4565b61021d6104623660046122a6565b611135565b610262610475366004612091565b611167565b600d546001600160a01b0316610295565b610232610499366004612326565b6001600160a01b03918216600090815260066020908152604080832093909416825291909152205460ff1690565b60005461023290600160a01b900460ff1681565b61021d6104e9366004612117565b611242565b61021d6104fc366004612091565b6112da565b6000546001600160a01b031633146105345760405162461bcd60e51b815260040161052b90612354565b60405180910390fd5b6040516370a0823160e01b81523060048201526001600160a01b038216906370a0823190602401602060405180830381865afa158015610578573d6000803e3d6000fd5b505050506040513d601f19601f8201168201806040525081019061059c9190612389565b8211156105e15760405162461bcd60e51b81526020600482015260136024820152724e6f7420656e6f7567682062616c616e63652160681b604482015260640161052b565b6001600160a01b03811663a9059cbb336040516001600160e01b031960e084901b1681526001600160a01b039091166004820152602481018590526044016020604051808303816000875af115801561063e573d6000803e3d6000fd5b505050506040513d601f19601f8201168201806040525081019061066291906123a2565b505050565b60006001600160e01b0319821663780e9d6360e01b148061068c575061068c82611396565b92915050565b6000546001600160a01b031633146106bc5760405162461bcd60e51b815260040161052b90612354565b801515600d60149054906101000a900460ff1615150361071e5760405162461bcd60e51b815260206004820181905260248201527f4e45575f53544154455f4944454e544943414c5f544f5f4f4c445f5354415445604482015260640161052b565b600d8054911515600160a01b0260ff60a01b19909216919091179055565b60606001805461074b906123bf565b80601f0160208091040260200160405190810160405280929190818152602001828054610777906123bf565b80156107c45780601f10610799576101008083540402835291602001916107c4565b820191906000526020600020905b8154815290600101906020018083116107a757829003601f168201915b5050505050905090565b60006107d960095490565b600d54909150600160a01b900460ff16156108365760405162461bcd60e51b815260206004820152601d60248201527f53616c65206973206e6f74206163746976652063757272656e746c792e000000604482015260640161052b565b600d546040516370a0823160e01b815233600482015284916001600160a01b0316906370a0823190602401602060405180830381865afa15801561087e573d6000803e3d6000fd5b505050506040513d601f19601f820116820180604052508101906108a29190612389565b101580156108b25750600c548310155b61093e5760405162461bcd60e51b815260206004820152605160248201527f54686520455243323020746f6b656e20616d6f756e742073656e74206973206e60448201527f6f7420636f7272656374206f7220496e7375666669656e74204552433230205460648201527037b5b2b71030b6b7bab73a1039b2b73a1760791b608482015260a40161052b565b81600e600061094e846001612409565b81526020019081526020016000208181610968919061241c565b5061066290503361097a836001612409565b6113e6565b6000818152600360205260408120546001600160a01b03166109f85760405162461bcd60e51b815260206004820152602c60248201527f4552433732313a20617070726f76656420717565727920666f72206e6f6e657860448201526b34b9ba32b73a103a37b5b2b760a11b606482015260840161052b565b506000908152600560205260409020546001600160a01b031690565b6000610a1f82610ded565b9050806001600160a01b0316836001600160a01b031603610a8c5760405162461bcd60e51b815260206004820152602160248201527f4552433732313a20617070726f76616c20746f2063757272656e74206f776e656044820152603960f91b606482015260840161052b565b336001600160a01b0382161480610aa85750610aa88133610499565b610b1a5760405162461bcd60e51b815260206004820152603860248201527f4552433732313a20617070726f76652063616c6c6572206973206e6f74206f7760448201527f6e6572206e6f7220617070726f76656420666f7220616c6c0000000000000000606482015260840161052b565b6106628383611400565b610b2f335b8261146e565b610b4b5760405162461bcd60e51b815260040161052b90612462565b610662838383611565565b6000610b6183610f32565b8210610bc35760405162461bcd60e51b815260206004820152602b60248201527f455243373231456e756d657261626c653a206f776e657220696e646578206f7560448201526a74206f6620626f756e647360a81b606482015260840161052b565b506001600160a01b03919091166000908152600760209081526040808320938352929052205490565b61066283838360405180602001604052806000815250611135565b610c1033610b29565b610c725760405162461bcd60e51b815260206004820152602d60248201527f4552433732313a2063616c6c6572206973206e6f7420746f6b656e206f776e6560448201526c1c881bdc88185c1c1c9bdd9959609a1b606482015260840161052b565b610c7b81611774565b50565b60606000610c8b83610f32565b905060008167ffffffffffffffff811115610ca857610ca8612178565b604051908082528060200260200182016040528015610cd1578160200160208202803683370190505b50905060005b82811015610d1857610ce98582610b56565b828281518110610cfb57610cfb6124b3565b602090810291909101015280610d10816124c9565b915050610cd7565b509392505050565b6000610d2b60095490565b8210610d8e5760405162461bcd60e51b815260206004820152602c60248201527f455243373231456e756d657261626c653a20676c6f62616c20696e646578206f60448201526b7574206f6620626f756e647360a01b606482015260840161052b565b60098281548110610da157610da16124b3565b90600052602060002001549050919050565b6000546001600160a01b03163314610ddd5760405162461bcd60e51b815260040161052b90612354565b600b610de98282612530565b5050565b6000818152600360205260408120546001600160a01b03168061068c5760405162461bcd60e51b815260206004820152602960248201527f4552433732313a206f776e657220717565727920666f72206e6f6e657869737460448201526832b73a103a37b5b2b760b91b606482015260840161052b565b6000546001600160a01b03163314610e8e5760405162461bcd60e51b815260040161052b90612354565b600d80546001600160a01b0319166001600160a01b0392909216919091179055565b6000546001600160a01b03163314610eda5760405162461bcd60e51b815260040161052b90612354565b60008054821515600160a01b0260ff60a01b199091161790556040517f609a97f3fcf929cc538454a17116257acd7e613a143e6bd10347d0f3b8369a0490610f2790831515815260200190565b60405180910390a150565b60006001600160a01b038216610f9d5760405162461bcd60e51b815260206004820152602a60248201527f4552433732313a2062616c616e636520717565727920666f7220746865207a65604482015269726f206164647265737360b01b606482015260840161052b565b506001600160a01b031660009081526004602052604090205490565b6000546001600160a01b03163314610fe35760405162461bcd60e51b815260040161052b90612354565b610fed600061181b565b565b33610ff982610ded565b6001600160a01b03161461104f5760405162461bcd60e51b815260206004820152601760248201527f4f6e6c79206f776e656e722063616e2061636365737321000000000000000000604482015260640161052b565b6000818152600e602090815260409182902054610100900460ff1615159161107c91908501908501611fcc565b15151415806110af57506000818152600e602090815260409091205460ff161515906110aa90840184611fcc565b151514155b6110fb5760405162461bcd60e51b815260206004820152601c60248201527f6368616e67656420617320796f752077616e7420616c72656164792100000000604482015260640161052b565b6000818152600e602052604090208290611115828261241c565b50505050565b60606002805461074b906123bf565b610de933838361186b565b61113f338361146e565b61115b5760405162461bcd60e51b815260040161052b90612462565b61111584848484611939565b6000818152600360205260409020546060906001600160a01b03166111e65760405162461bcd60e51b815260206004820152602f60248201527f4552433732314d657461646174613a2055524920717565727920666f72206e6f60448201526e3732bc34b9ba32b73a103a37b5b2b760891b606482015260840161052b565b60006111f061196c565b90506000815111611210576040518060200160405280600081525061123b565b8061121a8461197b565b60405160200161122b9291906125f0565b6040516020818303038152906040525b9392505050565b6000546001600160a01b0316331461126c5760405162461bcd60e51b815260040161052b90612354565b6001600160a01b0381166112d15760405162461bcd60e51b815260206004820152602660248201527f4f776e61626c653a206e6577206f776e657220697320746865207a65726f206160448201526564647265737360d01b606482015260840161052b565b610c7b8161181b565b6000546001600160a01b031633146113045760405162461bcd60e51b815260040161052b90612354565b80600c54036113555760405162461bcd60e51b815260206004820181905260248201527f4e45575f53544154455f4944454e544943414c5f544f5f4f4c445f5354415445604482015260640161052b565b600c5460408051918252602082018390527fd973fc2e603ddad5d36aaa80736e40497cab2acf89c4357f67ab8c85ac6b5d32910160405180910390a1600c55565b60006001600160e01b031982166380ac58cd60e01b14806113c757506001600160e01b03198216635b5e139f60e01b145b8061068c57506301ffc9a760e01b6001600160e01b031983161461068c565b610de9828260405180602001604052806000815250611a7c565b600081815260056020526040902080546001600160a01b0319166001600160a01b038416908117909155819061143582610ded565b6001600160a01b03167f8c5be1e5ebec7d5bd14f71427d1e84f3dd0314c0f7b2291e5b200ac8c7c3b92560405160405180910390a45050565b6000818152600360205260408120546001600160a01b03166114e75760405162461bcd60e51b815260206004820152602c60248201527f4552433732313a206f70657261746f7220717565727920666f72206e6f6e657860448201526b34b9ba32b73a103a37b5b2b760a11b606482015260840161052b565b60006114f283610ded565b9050806001600160a01b0316846001600160a01b0316148061152d5750836001600160a01b03166115228461097f565b6001600160a01b0316145b8061155d57506001600160a01b0380821660009081526006602090815260408083209388168352929052205460ff165b949350505050565b600054600160a01b900460ff166115c95760405162461bcd60e51b815260206004820152602260248201527f4552433732313a206e6f6e2d7472616e7366657261626c652063757272656e746044820152616c7960f01b606482015260840161052b565b826001600160a01b03166115dc82610ded565b6001600160a01b0316146116445760405162461bcd60e51b815260206004820152602960248201527f4552433732313a207472616e73666572206f6620746f6b656e2074686174206960448201526839903737ba1037bbb760b91b606482015260840161052b565b6001600160a01b0382166116a65760405162461bcd60e51b8152602060048201526024808201527f4552433732313a207472616e7366657220746f20746865207a65726f206164646044820152637265737360e01b606482015260840161052b565b6116b1838383611aaf565b6116bc600082611400565b6001600160a01b03831660009081526004602052604081208054600192906116e590849061261f565b90915550506001600160a01b0382166000908152600460205260408120805460019290611713908490612409565b909155505060008181526003602052604080822080546001600160a01b0319166001600160a01b0386811691821790925591518493918716917fddf252ad1be2c89b69c2b068fc378daa952ba7f163c4a11628f55a4df523b3ef91a4505050565b600061177f82610ded565b905061178d81600084611aaf565b611798600083611400565b6001600160a01b03811660009081526004602052604081208054600192906117c190849061261f565b909155505060008281526003602052604080822080546001600160a01b0319169055518391906001600160a01b038416907fddf252ad1be2c89b69c2b068fc378daa952ba7f163c4a11628f55a4df523b3ef908390a45050565b600080546001600160a01b038381166001600160a01b0319831681178455604051919092169283917f8be0079c531659141344cd1fd0a4f28419497f9722a3daafe3b4186f6b6457e09190a35050565b816001600160a01b0316836001600160a01b0316036118cc5760405162461bcd60e51b815260206004820152601960248201527f4552433732313a20617070726f766520746f2063616c6c657200000000000000604482015260640161052b565b6001600160a01b03838116600081815260066020908152604080832094871680845294825291829020805460ff191686151590811790915591519182527f17307eab39ab6107e8899845ad3d59bd9653f200f220920489ca2b5937696c31910160405180910390a3505050565b611944848484611565565b61195084848484611b67565b6111155760405162461bcd60e51b815260040161052b90612632565b6060600b805461074b906123bf565b6060816000036119a25750506040805180820190915260018152600360fc1b602082015290565b8160005b81156119cc57806119b6816124c9565b91506119c59050600a8361269a565b91506119a6565b60008167ffffffffffffffff8111156119e7576119e7612178565b6040519080825280601f01601f191660200182016040528015611a11576020820181803683370190505b5090505b841561155d57611a2660018361261f565b9150611a33600a866126ae565b611a3e906030612409565b60f81b818381518110611a5357611a536124b3565b60200101906001600160f81b031916908160001a905350611a75600a8661269a565b9450611a15565b611a868383611c68565b611a936000848484611b67565b6106625760405162461bcd60e51b815260040161052b90612632565b6001600160a01b038316611b0a57611b0581600980546000838152600a60205260408120829055600182018355919091527f6e1540171b6c0c960b71a7020d9f60077f6af931a8bbf590da0223dacf75c7af0155565b611b2d565b816001600160a01b0316836001600160a01b031614611b2d57611b2d8382611db6565b6001600160a01b038216611b445761066281611e53565b826001600160a01b0316826001600160a01b031614610662576106628282611f02565b60006001600160a01b0384163b15611c5d57604051630a85bd0160e11b81526001600160a01b0385169063150b7a0290611bab9033908990889088906004016126c2565b6020604051808303816000875af1925050508015611be6575060408051601f3d908101601f19168201909252611be3918101906126ff565b60015b611c43573d808015611c14576040519150601f19603f3d011682016040523d82523d6000602084013e611c19565b606091505b508051600003611c3b5760405162461bcd60e51b815260040161052b90612632565b805181602001fd5b6001600160e01b031916630a85bd0160e11b14905061155d565b506001949350505050565b6001600160a01b038216611cbe5760405162461bcd60e51b815260206004820181905260248201527f4552433732313a206d696e7420746f20746865207a65726f2061646472657373604482015260640161052b565b6000818152600360205260409020546001600160a01b031615611d235760405162461bcd60e51b815260206004820152601c60248201527f4552433732313a20746f6b656e20616c7265616479206d696e74656400000000604482015260640161052b565b611d2f60008383611aaf565b6001600160a01b0382166000908152600460205260408120805460019290611d58908490612409565b909155505060008181526003602052604080822080546001600160a01b0319166001600160a01b03861690811790915590518392907fddf252ad1be2c89b69c2b068fc378daa952ba7f163c4a11628f55a4df523b3ef908290a45050565b60006001611dc384610f32565b611dcd919061261f565b600083815260086020526040902054909150808214611e20576001600160a01b03841660009081526007602090815260408083208584528252808320548484528184208190558352600890915290208190555b5060009182526008602090815260408084208490556001600160a01b039094168352600781528383209183525290812055565b600954600090611e659060019061261f565b6000838152600a602052604081205460098054939450909284908110611e8d57611e8d6124b3565b906000526020600020015490508060098381548110611eae57611eae6124b3565b6000918252602080832090910192909255828152600a90915260408082208490558582528120556009805480611ee657611ee661271c565b6001900381819060005260206000200160009055905550505050565b6000611f0d83610f32565b6001600160a01b039093166000908152600760209081526040808320868452825280832085905593825260089052919091209190915550565b6001600160a01b0381168114610c7b57600080fd5b60008060408385031215611f6e57600080fd5b823591506020830135611f8081611f46565b809150509250929050565b6001600160e01b031981168114610c7b57600080fd5b600060208284031215611fb357600080fd5b813561123b81611f8b565b8015158114610c7b57600080fd5b600060208284031215611fde57600080fd5b813561123b81611fbe565b60005b83811015612004578181015183820152602001611fec565b50506000910152565b60008151808452612025816020860160208601611fe9565b601f01601f19169290920160200192915050565b60208152600061123b602083018461200d565b60006040828403121561205e57600080fd5b50919050565b6000806060838503121561207757600080fd5b82359150612088846020850161204c565b90509250929050565b6000602082840312156120a357600080fd5b5035919050565b600080604083850312156120bd57600080fd5b82356120c881611f46565b946020939093013593505050565b6000806000606084860312156120eb57600080fd5b83356120f681611f46565b9250602084013561210681611f46565b929592945050506040919091013590565b60006020828403121561212957600080fd5b813561123b81611f46565b6020808252825182820181905260009190848201906040850190845b8181101561216c57835183529284019291840191600101612150565b50909695505050505050565b634e487b7160e01b600052604160045260246000fd5b600067ffffffffffffffff808411156121a9576121a9612178565b604051601f8501601f19908116603f011681019082821181831017156121d1576121d1612178565b816040528093508581528686860111156121ea57600080fd5b858560208301376000602087830101525050509392505050565b60006020828403121561221657600080fd5b813567ffffffffffffffff81111561222d57600080fd5b8201601f8101841361223e57600080fd5b61155d8482356020840161218e565b6000806060838503121561226057600080fd5b61226a848461204c565b946040939093013593505050565b6000806040838503121561228b57600080fd5b823561229681611f46565b91506020830135611f8081611fbe565b600080600080608085870312156122bc57600080fd5b84356122c781611f46565b935060208501356122d781611f46565b925060408501359150606085013567ffffffffffffffff8111156122fa57600080fd5b8501601f8101871361230b57600080fd5b61231a8782356020840161218e565b91505092959194509250565b6000806040838503121561233957600080fd5b823561234481611f46565b91506020830135611f8081611f46565b6020808252818101527f4f776e61626c653a2063616c6c6572206973206e6f7420746865206f776e6572604082015260600190565b60006020828403121561239b57600080fd5b5051919050565b6000602082840312156123b457600080fd5b815161123b81611fbe565b600181811c908216806123d357607f821691505b60208210810361205e57634e487b7160e01b600052602260045260246000fd5b634e487b7160e01b600052601160045260246000fd5b8082018082111561068c5761068c6123f3565b813561242781611fbe565b815460ff19811691151560ff169182178355602084013561244781611fbe565b61ffff199190911690911790151560081b61ff001617905550565b60208082526031908201527f4552433732313a207472616e736665722063616c6c6572206973206e6f74206f6040820152701ddb995c881b9bdc88185c1c1c9bdd9959607a1b606082015260800190565b634e487b7160e01b600052603260045260246000fd5b6000600182016124db576124db6123f3565b5060010190565b601f82111561066257600081815260208120601f850160051c810160208610156125095750805b601f850160051c820191505b8181101561252857828155600101612515565b505050505050565b815167ffffffffffffffff81111561254a5761254a612178565b61255e8161255884546123bf565b846124e2565b602080601f831160018114612593576000841561257b5750858301515b600019600386901b1c1916600185901b178555612528565b600085815260208120601f198616915b828110156125c2578886015182559484019460019091019084016125a3565b50858210156125e05787850151600019600388901b60f8161c191681555b5050505050600190811b01905550565b60008351612602818460208801611fe9565b835190830190612616818360208801611fe9565b01949350505050565b8181038181111561068c5761068c6123f3565b60208082526032908201527f4552433732313a207472616e7366657220746f206e6f6e20455243373231526560408201527131b2b4bb32b91034b6b83632b6b2b73a32b960711b606082015260800190565b634e487b7160e01b600052601260045260246000fd5b6000826126a9576126a9612684565b500490565b6000826126bd576126bd612684565b500690565b6001600160a01b03858116825284166020820152604081018390526080606082018190526000906126f59083018461200d565b9695505050505050565b60006020828403121561271157600080fd5b815161123b81611f8b565b634e487b7160e01b600052603160045260246000fdfea26469706673582212208dd968e5a597c7b866ba30cad57c8069f6ab06dd75f0cd86c9c848e49351be2f64736f6c63430008110033",
    "sourcePath": "d:/Projects/Next-Intelligence-Exchange-Platform/contracts/SmartIntelligenceLicenseNFT/SmartIntelligenceLicense.sol",
    "compiler": {
        "name": "solc",
        "version": "0.8.17+commit.8df45f5f"
    },
    "functionHashes": {
        "SILDetails(uint256)": "a56b357c",
        "adopt(uint256,(bool,bool))": "07f01061",
        "approve(address,uint256)": "095ea7b3",
        "balanceOf(address)": "70a08231",
        "burn(uint256)": "42966c68",
        "enableTransfer()": "f1b50c1d",
        "getApproved(uint256)": "081812fc",
        "getMintPrice()": "a7f93ebd",
        "getPause()": "3e3ca9d3",
        "getPaymentToken()": "d41c3a65",
        "isApprovedForAll(address,address)": "e985e9c5",
        "name()": "06fdde03",
        "owner()": "8da5cb5b",
        "ownerOf(uint256)": "6352211e",
        "pause(bool)": "02329a29",
        "renounceOwnership()": "715018a6",
        "safeTransferFrom(address,address,uint256)": "42842e0e",
        "safeTransferFrom(address,address,uint256,bytes)": "b88d4fde",
        "setApprovalForAll(address,bool)": "a22cb465",
        "setBaseURI(string)": "55f804b3",
        "setEnableTransfer(bool)": "6fcc2585",
        "setMintPrice(uint256)": "f4a0a528",
        "setPaymentToken(address)": "6a326ab1",
        "setSILDetail((bool,bool),uint256)": "7e75da88",
        "supportsInterface(bytes4)": "01ffc9a7",
        "symbol()": "95d89b41",
        "tokenByIndex(uint256)": "4f6ccce7",
        "tokenOfOwnerByIndex(address,uint256)": "2f745c59",
        "tokenURI(uint256)": "c87b56dd",
        "totalSupply()": "18160ddd",
        "transferFrom(address,address,uint256)": "23b872dd",
        "transferOwnership(address)": "f2fde38b",
        "walletOfOwner(address)": "438b6300",
        "withdraw(uint256,address)": "00f714ce"
    },
    "gasEstimates": {
        "creation": {
            "codeDepositCost": "2017600",
            "executionCost": "infinite",
            "totalCost": "infinite"
        },
        "external": {
            "SILDetails(uint256)": "2542",
            "adopt(uint256,(bool,bool))": "infinite",
            "approve(address,uint256)": "infinite",
            "balanceOf(address)": "2673",
            "burn(uint256)": "infinite",
            "enableTransfer()": "2404",
            "getApproved(uint256)": "4760",
            "getMintPrice()": "2359",
            "getPause()": "2400",
            "getPaymentToken()": "2375",
            "isApprovedForAll(address,address)": "infinite",
            "name()": "infinite",
            "owner()": "2398",
            "ownerOf(uint256)": "2689",
            "pause(bool)": "29001",
            "renounceOwnership()": "28226",
            "safeTransferFrom(address,address,uint256)": "infinite",
            "safeTransferFrom(address,address,uint256,bytes)": "infinite",
            "setApprovalForAll(address,bool)": "infinite",
            "setBaseURI(string)": "infinite",
            "setEnableTransfer(bool)": "27831",
            "setMintPrice(uint256)": "30156",
            "setPaymentToken(address)": "26751",
            "setSILDetail((bool,bool),uint256)": "infinite",
            "supportsInterface(bytes4)": "infinite",
            "symbol()": "infinite",
            "tokenByIndex(uint256)": "6804",
            "tokenOfOwnerByIndex(address,uint256)": "4992",
            "tokenURI(uint256)": "infinite",
            "totalSupply()": "2393",
            "transferFrom(address,address,uint256)": "infinite",
            "transferOwnership(address)": "infinite",
            "walletOfOwner(address)": "infinite",
            "withdraw(uint256,address)": "infinite"
        },
        "internal": {
            "_baseURI()": "infinite"
        }
    }
}